:10000000A5EF00F00000000000EF00F0000000008D
:0C0010000000000000000000C6EF00F03F
:10001C000134083609360450085E0550D8A0053C5A
:10002C00095E003601360F0E0C6E013408360936A7
:10003C00045000A006D0085E0550D8A0053C095E0F
:10004C0005D008260550D8B0053C092600360136E7
:10005C000C2EEBD700B006D0045008260550D8B0B3
:08006C00053C0926000012000A
:100074000450000A08E10550000A05E1FF0E006E75
:100084007F0E016E57D00D6A096A086A015000108C
:10009400D8B4000C015005180A6E0ABE0D1E0B6A76
:1000A40005AE05D0041E051E042AD8B4052A01AEE7
:1000B40005D0001E011E002AD8B4012A01500510E3
:1000C4000A6E0ABE10D0A8DF0BB020D00DAE000C13
:1000D400001E011E002AD8B4012A081E091E082A7F
:1000E400D8B4092A000C05AE0DD001BE07D00150CA
:1000F400096E0050086E016A006AE8D7016A006A56
:10010400002A000C011E001E0B2ADDD7082AD8B4D1
:10011400092A0450085CD8A4D9D70550095CD8A48E
:10012400D5D7096A086A002AD8B4012A01AECED705
:060134000000FF0C1200A8
:10013A000900F5CFE6FF0006FBE10106F9E112002E
:10014A001CEC01F0D08E0F0EC16E92809282936ADF
:10015A00946A3F0E816EE00EF26E840ED56EF194B3
:10016A00DC0ED66E0B0ED76ED58E80B004D0010E83
:10017A00306E000E316E80B202D0306A316AF5D725
:02018A00FFD79D
:10018C0000C019F001C018F0156ED8CF16F0E0CFF2
:10019C0017F0F2A433D0D59E010E2E24006E000E63
:1001AC002F20016E0A0E046E000E056E5DDF08C076
:1001BC0000F009C001F000C02EF001C02FF000C00B
:1001CC0002F001C003F00236029003361A0E02242C
:1001DC00E96E000E0320EA6EEECF81FF000E31189F
:1001EC0002E1010E301805E1DC0ED66E0B0ED76E57
:1001FC0004D0F70ED66EC20ED76ED58EF294175071
:10020C00E06E1650D86E153A153819C000F018C0AB
:04021C0001F01000DD
:1002380010EE1AF0180E006E010E016E200EF66E0A
:0E024800020EF76E000EF86E9DEC00F0120034
:100220003F0006005B004F0066006D007D00070088
:040230007F006F00DC
:020234000000C8
:020236000000C6
:020000040030CA
:0E000000000C1F1EFF8381FF0FC00FE00F409A
:00000001FF
