:1000000006EF06F00000000000EF00F00000000026
:0A0010000000000000000000F3D71C
:10001C000B820BAE18EF00F00368026801680068F1
:08002C000A360232FF0E120039
:0E003400026A016A006A086A036A000E12007E
:100042000B840BAE2CEF00F0010E036E026A016A04
:0A005200006A0A360232FF0E1200A7
:08005C000AAE029E000E120024
:100064000CB074EF00F00CA21AEF01F00E6A000E4F
:1000740002648BEF00F0F00E0214D8A456EF00F0E7
:10008400023A01380F0B02260138F00B016E0038DA
:100094000F0B01260038F00B006E08380F0B0026FA
:1000A4000838F00B086E0E84D89002BE6FEF00F093
:1000B40008360036013602360E2A02BE6FEF00F013
:1000C40008360036013602360E2A02BE6FEF00F003
:1000D40008360036013602360E2A0E50036410EF3D
:1000E40001F0035E0BBC08AE15EF01F0D880800E62
:1000F40008640030000E002201220222D8A015EF6D
:1001040001F0023201320032034A1AEF01F015EF16
:1001140001F001C002F000C001F008C000F0086A5C
:10012400000E0E860264C2EF00F0F00E0214D8A492
:10013400AAEF00F0023A01380F0B02260138F00B47
:10014400016E00380F0B01260038F00B006E0E8490
:10015400D89002BE6FEF00F00036013602360E2A48
:1001640002BE6FEF00F00036013602360E2A02BEE0
:100174006FEF00F00036013602360E2A6FEF00F002
:1001840001C002F000C001F0006A000E0E960E8855
:100194000264EFEF00F0F00E0214D8A4DAEF00F0DE
:1001A400023A01380F0B02260138F00B016E0E845F
:1001B400D89002BE6FEF00F0013602360E2A02BE5E
:1001C4006FEF00F0013602360E2A02BE6FEF00F028
:1001D400013602360E2A6FEF00F001C002F0016A08
:1001E400000E0E8602641FEF01F0F00E0214D8A474
:1001F400FEEF00F0023A0E84D89002BE6FEF00F0DA
:1002040002360E2A02BE6FEF00F002360E2A02BE3C
:100214006FEF00F002360E2A6FEF00F0010E0C6E45
:100224000EDF22EF01F0020E0C6E16DF22EF01F05A
:10023400040E0C6EF1DE22EF01F0080E0C6EF8DEF7
:020244001200A6
:0A024600210E0D6E0D2EFED71200E2
:0602500000000000120096
:100256000F0E0C6E470E0D6E0D2EFED70C2EFCD714
:0602660000000000120080
:08026C000B6A0B86FF0E120065
:100274000B800BAE46EF01F0026A0AAEFF0E026E6F
:0C028400016E006E0A360232FF0E1200FE
:1002900023BE02D0819601D0818623BC02D08194F6
:1002A00001D0818423BA02D0819201D0818223B807
:1002B00002D0819001D081801CB002D0818801D011
:1002C0008198818AC5DF819A23B602D0819601D0B8
:1002D000818623B402D0819401D0818423B202D0DC
:1002E000819201D0818223B002D0819001D081809F
:1002F0001CB002D0818801D08198818AA9DF819ABF
:0C0300001CA002D0A8DF01D09EDF12007C
:10030C00025006180E6E086A096A0B6A03500764DD
:10031C0079EF02F006500A6E068E028E03500B6EB9
:10032C000750036E000E0B64C9EF01F00B50075E13
:10033C00D8B46AEF02F0070E076438EF02F0075EDC
:10034C0000C008F001C000F002C001F0026A074EC4
:10035C006AEF02F007640DEF02F0075E00C008F0D0
:10036C0001C000F0016A074E6AEF02F00764EBEF80
:10037C0001F0075E00C008F0006A074E6AEF02F059
:10038C000764D2EF01F00AC002F005C001F004C00E
:10039C0000F0086A93EF03F0030E0764DDEF01F041
:1003AC00075E08380F0B086E074E6AEF02F0D89004
:1003BC000832074E6AEF02F0D8900832074E6AEF07
:1003CC0002F0D89008326AEF02F0030E0764FCEFDB
:1003DC0001F0075E08380F0B086E0038F00B08268A
:1003EC0000380F0B006E074E6AEF02F0D890003207
:1003FC000832074E6AEF02F0D89000320832074EEE
:10040C006AEF02F0D890003208326AEF02F0030E65
:10041C00076424EF02F0075E08380F0B086E0038F3
:10042C00F00B082600380F0B006E0138F00B00267D
:10043C0001380F0B016E074E6AEF02F0D8900132B3
:10044C0000320832074E6AEF02F0D89001320032C7
:10045C000832074E6AEF02F0D890013200320832AF
:10046C006AEF02F0030E076455EF02F0075E0838DE
:10047C000F0B086E0038F00B082600380F0B006EBF
:10048C000138F00B002601380F0B016E0238F00B0F
:10049C00012602380F0B026E074E6AEF02F0D8905D
:1004AC000232013200320832074E6AEF02F0D89065
:1004BC000232013200320832074E6AEF02F0D89055
:1004CC000232013200320832096A000E0EAE5EEFC3
:1004DC0003F0081E001E011E021E082A0022012223
:1004EC0002225EEF03F00750D8A47FEF02F093EFE7
:1004FC0003F0096A02C00AF0028E068E0750035CF4
:10050C00076ED8B451EF03F0070E07641FEF03F02A
:10051C00075E0450096E0550046E0650056E066A9F
:10052C00074E51EF03F0070E0764F4EF02F0075E7D
:10053C000450096E0550046E056A074E51EF03F026
:10054C00070E0764D2EF02F0075E0450096E046ACE
:10055C00074E51EF03F0070E0764B9EF02F00AC023
:10056C0002F093EF03F0030E0764C4EF02F0075E92
:10057C0009380F0B096E074E51EF03F0D890093272
:10058C00074E51EF03F0D8900932074E51EF03F0AC
:10059C00D890093251EF03F0030E0764E3EF02F039
:1005AC00075E09380F0B096E0438F00B0926043866
:1005BC000F0B046E074E51EF03F0D8900432093242
:1005CC00074E51EF03F0D89004320932074E51EF29
:1005DC0003F0D8900432093251EF03F0030E076494
:1005EC000BEF03F0075E09380F0B096E0438F00BA4
:1005FC00092604380F0B046E0538F00B0426053859
:10060C000F0B056E074E51EF03F0D89005320432F4
:10061C000932074E51EF03F0D890053204320932FB
:10062C00074E51EF03F0D89005320432093251EFE6
:10063C0003F0030E07643CEF03F0075E09380F0B61
:10064C00096E0438F00B092604380F0B046E0538BC
:10065C00F00B042605380F0B056E0638F00B05263B
:10066C0006380F0B066E074E51EF03F0D89006328A
:10067C00053204320932074E51EF03F0D89006329E
:10068C00053204320932074E51EF03F0D89006328E
:10069C00053204320932086A000E0EAE5EEF03F02A
:1006AC00091E041E051E061E092A04220522062206
:1006BC00095008260450002205500122065002223F
:1006CC000EBE75EF03F0D8A084EF03F002320132B6
:1006DC0000320832033E84EF03F08EEF03F0D8B003
:1006EC0089EF03F0000E081E001E011E021E082AD0
:1006FC000022012202220A7E89EF03F0010E0C6E09
:10070C00ABDC95EF03F0020E0C6EA6DC95EF03F05C
:10071C00040E0C6E7DDC95EF03F0000E0C6E1200D7
:10072C000450000A12E10550000A0FE10650000ABD
:10073C000CE10750000A09E1FF0E006EFF0E016E7E
:10074C007F0E026EFF0E036EA7D0086A096A07506F
:10075C00D8B441EF04F00350D8B445EF04F0025084
:10076C0006180A6E028E068E0E6A02C008F001C0D0
:10077C000CF000C00DF004500D5E0550D8A0053CE7
:10078C000C5E0650D8A0063C085E086A0C6A0D6A1E
:10079C00D8A0D8EF03F0D8900232013200320832E0
:1007AC00010E0E6E0750035ED8A0E5EF03F07E0E2F
:1007BC000E240326D8B04AEF04F0EBEF03F07E0EC4
:1007CC000E240326D8A04FEF04F0180E0B6E0D3636
:1007DC000C3608360036013602360E360450005EF2
:1007EC000550D8A0053C015E0650D8A0063C025E20
:1007FC0006340E120EA006EF04F00D8011EF04F07B
:10080C00045000260550D8B0053C01260650D8B03F
:10081C00062802260D900B2EEDEF03F037EF04F0B7
:10082C00D8900036013602360E360450005E055064
:10083C00D8A0053C015E0650D8A0063C025E0634EA
:10084C000E10010B0D26D8B00C2AD8B4082AD8A447
:10085C0037EF04F008320C320D32032AD8B44AEFC9
:10086C0004F00AAE089E0850026E0C50016E0D503A
:10087C00006E52EF04F0010EF3DC52EF04F0020EA6
:10088C001AEC00F052EF04F0040E0EEC00F052EFF4
:0A089C0004F0080E21EC00F0120039
:1008A6000050086E0150006E0250016E0350026E39
:1008B600036A0B6A0C6A9E0E036E0A6A02AE70EF3A
:1008C60004F0081E001E011E021E082AD8B4002AC3
:1008D600D8B4012AD8B4022A0A8E020E0C6E32EC63
:0408E60000F012000C
:0608EA00067E0FDD120086
:1008F0000B6A0350D8B4BEEF04F002500A6E028EA9
:100900008E0E035E03AEC2EF04F0036C080E035CB0
:10091000D8A09DEF04F0036E013602C001F0026A18
:10092000080E035CD8A09DEF04F0036E0136016A47
:100930000350D8A4D890A7EF04F00350D8B4A7EF81
:1009400004F0D89002320132032EA1EF04F00BBC68
:1009500001A0B4EF04F0D8A0B4EF04F0012AD8B499
:10096000022A02BED1EF04F00AAED6EF04F0021E56
:10097000011E012AD8B4022AD6EF04F0026A016AE5
:10098000D6EF04F00B800BAEDAEF04F0026A0AAE89
:10099000DAEF04F0FF0E026E016E0A360232DAEF71
:1009A00004F0010E0C6E66DCDCEF04F0000E0C6E41
:1009B000DCEF04F0FF0E0C6E0150006E0250016E71
:0209C000120023
:0C09C2001C9022C023F063DC1C8012009B
:1009CE000900F5CFE6FF0006FBE10106F9E1120092
:1009DE00939A93989390939293949396819A8198E5
:1009EE0081968194819281902FDC2EDC2DDC818288
:1009FE008180818A26DC819A27DC818A22DC819A99
:100A0E0023DC818A1EDC819A1FDC8190818A19DCAD
:100A1E00819A1ADC818A15DC819A81928186818A7B
:100A2E0010DC819A11DC81968180818A0ADC819AA0
:100A3E008190818A06DC819A07DC818A02DC819AA8
:100A4E008180818A28EC01F0819A2BEC01F0819053
:100A5E00818A28EC01F0819A81868184818281804D
:100A6E00818A28EC01F0819A2BEC01F01C80120097
:100A7E00949C948E1DC000F01EC001F01FC002F0A9
:100A8E0020C003F009DF00C004F001C005F002C071
:100A9E0006F003C007F0000E006E240E016E740EF9
:100AAE00026E8F0E036E3BDE000E046E000E056EA0
:100ABE00000E066E7F0E076E11DF13DF00C0AFFF54
:100ACE00AC98AB8EB8989D98AC9CAC8AAC94AC921A
:100ADE00AC90200EAC6EAC98AB8EAB9CAB9AB89A29
:100AEE009D9AAB88AB96AB94AB92AB90900EAB6EDF
:020AFE001200E4
:100B00009EBA01D0FDD7ABA20BD0AB981A0E0C6EDB
:100B1000F80E0D6E0D2EFED70C2EFCD70000AB8804
:060B2000AECF00F0120050
:100B26000FD0800E1D6E19D0C00E1D6E16D0940EFD
:100B36001D6E13D0D40E1D6E10D0800E1D6E0DD0FE
:100B46001D50010AEEE01D50020AEEE01D50030A98
:100B5600EEE01D50040AEEE0F0D71E04006E1D50B4
:100B6600002600C01DF000C023F048EC01F01C90E8
:100B7600216A21501F24E96E000E2020EA6EEE52F3
:100B86000BE021501F24E96E000E2020EA6EEECF06
:0C0B960022F014DF212AEDD71C80120091
:0C0BA2009EB801D0FDD71DC0ADFF1200B1
:100BAE000FD0800E1D6E19D0C00E1D6E16D0940E75
:100BBE001D6E13D0D40E1D6E10D0800E1D6E0DD076
:100BCE001D50010AEEE01D50020AEEE01D50030A10
:100BDE00EEE01D50040AEEE0F0D71E04006E1D502C
:100BEE00002600C01DF01C8000C023F048EC01F070
:0E0BFE001C901FC023F048EC01F01C80120078
:100C0C00630E156E540E166E650E176E730E186EFF
:100C1C00740E196E320E1A6E1B6A0F0EC16ED9DE6F
:100C2C00010E236E48EC01F00C0E236E48EC01F023
:100C3C00800E1D6E250E1E6E000E1F6E206E19DFAF
:100C4C00820E0C6EDD0E0D6E0D2EFED70C2EFCD70B
:100C5C0000000000010E1D6E010E1E6E160E1F6EA2
:100C6C00000E206E5ADF46DF00C015F0020E1D6E1E
:100C7C00010E1E6E00C01FF094DF152A15C01DF06A
:060C8C008ADFE8D7FFD764
:020000040030CA
:0E000000000C1F1EFF8381FF0FC00FE00F409A
:00000001FF
