:1000000023EF1FF00000000000EF00F000000000F0
:0A0010000000000000000000F3D71C
:10001C000B820BAE18EF00F00368026801680068F1
:08002C000A360232FF0E120039
:0E003400026A016A006A086A036A000E12007E
:080042000AAE029E000E12003E
:10004A000B840BAE30EF00F0010E036E026A016AF8
:0A005A00006A0A360232FF0E12009F
:100064000CB074EF00F00CA21AEF01F00E6A000E4F
:1000740002648BEF00F0F00E0214D8A456EF00F0E7
:10008400023A01380F0B02260138F00B016E0038DA
:100094000F0B01260038F00B006E08380F0B0026FA
:1000A4000838F00B086E0E84D89002BE6FEF00F093
:1000B40008360036013602360E2A02BE6FEF00F013
:1000C40008360036013602360E2A02BE6FEF00F003
:1000D40008360036013602360E2A0E50036410EF3D
:1000E40001F0035E0BBC08AE15EF01F0D880800E62
:1000F40008640030000E002201220222D8A015EF6D
:1001040001F0023201320032034A1AEF01F015EF16
:1001140001F001C002F000C001F008C000F0086A5C
:10012400000E0E860264C2EF00F0F00E0214D8A492
:10013400AAEF00F0023A01380F0B02260138F00B47
:10014400016E00380F0B01260038F00B006E0E8490
:10015400D89002BE6FEF00F00036013602360E2A48
:1001640002BE6FEF00F00036013602360E2A02BEE0
:100174006FEF00F00036013602360E2A6FEF00F002
:1001840001C002F000C001F0006A000E0E960E8855
:100194000264EFEF00F0F00E0214D8A4DAEF00F0DE
:1001A400023A01380F0B02260138F00B016E0E845F
:1001B400D89002BE6FEF00F0013602360E2A02BE5E
:1001C4006FEF00F0013602360E2A02BE6FEF00F028
:1001D400013602360E2A6FEF00F001C002F0016A08
:1001E400000E0E8602641FEF01F0F00E0214D8A474
:1001F400FEEF00F0023A0E84D89002BE6FEF00F0DA
:1002040002360E2A02BE6FEF00F002360E2A02BE3C
:100214006FEF00F002360E2A6FEF00F0010E0C6E45
:1002240012DF22EF01F0020E0C6E09DF22EF01F063
:10023400040E0C6EF1DE22EF01F0080E0C6EF8DEF7
:020244001200A6
:080246000B6A0B86FF0E12008B
:06024E0000000000120098
:10025400086A080E0C6E003408360450085ED8B0E4
:0E02640002D00826D89000360C2EF5D71200D6
:10027200086A096A000E07620364BEEF01F00250C9
:1002820006180A6E075003267E0ED8A04FEF01F023
:10029200035ED8B0C2EF01F053EF01F0035ED8A0C5
:1002A200C6EF01F0028E068E02C00EF001C00BF006
:1002B20000C00DF000500402F4CF0CF00150050212
:1002C200F4CF00F0F3CF08F00402F3500C26F45000
:1002D2000822000E00220D500502F3500C26F450A5
:1002E2000822000E002202500402F3500826F450A5
:1002F200002202500502016A000E0122F35000267C
:10030200F45001220D500602F3500826F450002248
:10031200026A000E012202220B500602F35000264E
:10032200F4500122000E02220E500602F350012662
:10033200F450022202BEA6EF01F008360036013662
:1003420002360306D8B4C6EF01F0B9EF01F0D88047
:10035200800E08640030000E002201220222D8A082
:10036200B9EF01F0023201320032034AC2EF01F06A
:100372000AAE029E000EC8EF01F0010E5ADEC8EF6F
:1003820001F0020E4ADEC8EF01F0040E5DDE12003B
:10039200025006180E6E086A096A0B6A0350076457
:1003A200BCEF02F006500A6E068E028E03500B6EF0
:1003B2000750036E000E0B640CEF02F00B50075E49
:1003C200D8B4ADEF02F0070E07647BEF02F0075ED0
:1003D20000C008F001C000F002C001F0026A074E3E
:1003E200ADEF02F0076450EF02F0075E00C008F0C4
:1003F20001C000F0016A074EADEF02F007642EEF74
:1004020002F0075E00C008F0006A074EADEF02F08E
:10041200076415EF02F00AC002F005C001F004C043
:1004220000F0086AD6EF03F0030E076420EF02F033
:10043200075E08380F0B086E074EADEF02F0D8903A
:100442000832074EADEF02F0D8900832074EADEFFA
:1004520002F0D8900832ADEF02F0030E07643FEFCE
:1004620002F0075E08380F0B086E0038F00B082602
:1004720000380F0B006E074EADEF02F0D89000323D
:100482000832074EADEF02F0D89000320832074E24
:10049200ADEF02F0D89000320832ADEF02F0030E59
:1004A200076467EF02F0075E08380F0B086E00382A
:1004B200F00B082600380F0B006E0138F00B0026F7
:1004C20001380F0B016E074EADEF02F0D8900132EA
:1004D20000320832074EADEF02F0D89001320032FE
:1004E2000832074EADEF02F0D890013200320832E6
:1004F200ADEF02F0030E076498EF02F0075E0838D2
:100502000F0B086E0038F00B082600380F0B006E38
:100512000138F00B002601380F0B016E0238F00B88
:10052200012602380F0B026E074EADEF02F0D89093
:100532000232013200320832074EADEF02F0D8909B
:100542000232013200320832074EADEF02F0D8908B
:100552000232013200320832096A000E0EAEA1EFF9
:1005620003F0081E001E011E021E082A002201229C
:100572000222A1EF03F00750D8A4C2EF02F0D6EF97
:1005820003F0096A02C00AF0028E068E0750035C6D
:10059200076ED8B494EF03F0070E076462EF03F01E
:1005A200075E0450096E0550046E0650056E066A19
:1005B200074E94EF03F0070E076437EF03F0075E70
:1005C2000450096E0550046E056A074E94EF03F05D
:1005D200070E076415EF03F0075E0450096E046A04
:1005E200074E94EF03F0070E0764FCEF02F00AC017
:1005F20002F0D6EF03F0030E076407EF03F0075E85
:1006020009380F0B096E074E94EF03F0D8900932A8
:10061200074E94EF03F0D8900932074E94EF03F09F
:10062200D890093294EF03F0030E076426EF03F02B
:10063200075E09380F0B096E0438F00B09260438DF
:100642000F0B046E074E94EF03F0D8900432093278
:10065200074E94EF03F0D89004320932074E94EF1C
:1006620003F0D8900432093294EF03F0030E0764CA
:100672004EEF03F0075E09380F0B096E0438F00BDA
:10068200092604380F0B046E0538F00B04260538D2
:100692000F0B056E074E94EF03F0D890053204322B
:1006A2000932074E94EF03F0D89005320432093232
:1006B200074E94EF03F0D89005320432093294EFDA
:1006C20003F0030E07647FEF03F0075E09380F0B98
:1006D200096E0438F00B092604380F0B046E053836
:1006E200F00B042605380F0B056E0638F00B0526B5
:1006F20006380F0B066E074E94EF03F0D8900632C1
:10070200053204320932074E94EF03F0D8900632D4
:10071200053204320932074E94EF03F0D8900632C4
:10072200053204320932086A000E0EAEA1EF03F060
:10073200091E041E051E061E092A0422052206227F
:1007420009500826045000220550012206500222B8
:100752000EBEB8EF03F0D8A0C7EF03F002320132A9
:1007620000320832033EC7EF03F0D1EF03F0D8B0F6
:10077200CCEF03F0000E081E001E011E021E082A06
:100782000022012202220A7ECCEF03F0010E0C6E3F
:1007920068DCD8EF03F0020E0C6E63DCD8EF03F0D6
:1007A200040E0C6E3ADCD8EF03F0000E0C6E120051
:1007B2000B800BAEE5EF03F0026A0AAEFF0E026E8B
:0C07C200016E006E0A360232FF0E1200BB
:1007CE000F0E0C6E470E0D6E0D2EFED70C2EFCD797
:0607DE0000000000120003
:0A07E400210E0D6E0D2EFED712003F
:1007EE000134083609360450085E0550D8A0053C81
:1007FE00095E003601360F0E0C6E013408360936CE
:10080E00045000A006D0085E0550D8A0053C095E35
:10081E0005D008260550D8B0053C0926003601360D
:10082E000C2EEBD700B006D0045008260550D8B0D9
:08083E00053C09260000120030
:100846000D6A086A0050D8B4000C04180A6E0ABE75
:100856000D1E0B6A04AE02D0041E042A00AE02D09E
:10086600001E002A005004100A6E0ABE1FD0045053
:10087600085E003600340836045008260036060E98
:100886000C6E00340836045000B0085E00A008263E
:1008960000360C2EF6D700A008260BB015D00DAEEC
:1008A600000C001E002A081E082A000C04AE09D0FF
:1008B60000BE04D00050086E006AF1D7006A002A14
:1008C600000C001E0B2AD3D7082A0450085CD8A4B3
:0E08D600E6D7086A002A00AEE2D7FF0C120037
:1008E4006E0E00016B5DD8A0C3D0640E046E6BC0A5
:1008F40000F0AEDC120E0024056E066A000E06221D
:1009040005C000F006C001F0000E06BEFF0E026E28
:10091400036E00360090013602360336003600902E
:100924000136023603361A0E0024F66E3F0E0120FD
:10093400F76E000E0220F86E0900F5CF00F00900F2
:10094400F5CF01F00900F5CF02F00900F5CF03F06F
:10095400000E046E000E056E000E066E7E0E076E0F
:1009640086DC00C06CF001C06DF002C06EF003C004
:100974006FF0640E046E6BC000F06ADC08C000F017
:100984000A0E046E65DC090E0024056E066A000E6C
:10099400062205C000F006C001F0000E06BEFF0EE0
:1009A400026E036E003600900136023603360036BE
:1009B40000900136023603361A0E0024F66E3F0EFE
:1009C4000120F76E000E0220F86E0900F5CF00F04A
:1009D4000900F5CF01F00900F5CF02F00900F5CFC9
:1009E40003F06CC004F06DC005F06EC006F06FC07B
:1009F40007F03DDC00C06CF001C06DF002C06EF089
:100A040003C06FF00A0E046E6BC000F021DC08C056
:100A140000F000C001F0000E026E036E046E013699
:100A2400019002360336043601360190023603364D
:100A340004361A0E0124F66E3F0E0220F76E000EE5
:100A44000320F86E0900F5CF00F00900F5CF01F09E
:100A54000900F5CF02F00900F5CF03F06CC004F0F3
:100A64006DC005F06EC006F06FC007F000DCB1D0B9
:100A74006B510A08D8B07ED00A0E046E6BC000F029
:100A84002AEC01F0090E0024056E066A000E062207
:100A940005C000F006C001F0000E06BEFF0E026E97
:100AA400036E00360090013602360336003600909D
:100AB4000136023603361A0E0024F66E3F0E01206C
:100AC400F76E000E0220F86E0900F5CF00F0090061
:100AD400F5CF01F00900F5CF02F00900F5CF03F0DE
:100AE400000E046E000E056E000E066E7E0E076E7E
:100AF40039EC01F000C06CF001C06DF002C06EF082
:100B040003C06FF00A0E046E6BC000F02AEC01F013
:100B140008C000F000C001F0000E026E036E046E07
:100B2400013601900236033604360136019002364E
:100B3400033604361A0E0124F66E3F0E0220F76EB9
:100B4400000E0320F86E0900F5CF00F00900F5CF80
:100B540001F00900F5CF02F00900F5CF03F06CC0F5
:100B640004F06DC005F06EC006F06FC007F039ECFC
:100B740001F02FD06BC000F0000E016E026E036E08
:100B840000360090013602360336003600900136F6
:100B9400023603361A0E0024F66E3F0E0120F76E5D
:100BA400000E0220F86E0900F5CF00F00900F5CF21
:100BB40001F00900F5CF02F00900F5CF03F0000EB3
:100BC400046E000E056E000E066E7E0E076E39EC86
:040BD40001F012001A
:100BD80000016BBF02D0819601D081866BBD02D027
:100BE800819401D081846BBB02D0819201D0818233
:100BF8006BB902D0819001D0818035B002D0818854
:100C080001D08198818A27EC01F0819A6BB702D0D4
:100C1800819601D081866BB502D0819401D0818400
:100C28006BB302D0819201D081826BB102D08190E6
:100C380001D0818035B002D0818801D08198818A25
:100C480027EC01F0819A35A002D0BDDD01D0C6DDC8
:020C5800120088
:100C5A000B6A0C6A0A6A086A0350D8B4B5EF06F040
:100C6A00028E9E0E035E03BE40EF06F0D8B440EF3C
:100C7A0006F0A5EF06F0036C080E035CD8A072EF2D
:100C8A0006F0036E083600C008F001C000F002C08A
:100C9A0001F0026A080E035CD8A072EF06F0036E38
:100CAA00083600C008F001C000F0016A080E035CB3
:100CBA00D8A072EF06F0036E083600C008F0006A8A
:100CCA00080E035CD8A072EF06F0036E0836086AB5
:100CDA000350D8A4D8907EEF06F00350D8B47EEF24
:100CEA0006F0D8900232013200320832032E76EF33
:100CFA0006F00BBC08A08FEF06F0D8A08FEF06F025
:100D0A00082AD8B4002AD8B4012AD8B4022A02BEC2
:100D1A00B9EF06F00AAEB5EF06F0021E011E001E7C
:100D2A00081E082AD8B4002AD8B4012AD8B4022A3C
:100D3A00B5EF06F0026A016A006A086AB5EF06F0C2
:100D4A000B800BAEBEEF06F0026A0AAEBEEF06F0EB
:100D5A00026E016E006E086E0A360232BEEF06F0AF
:100D6A00000E0C6ABFEF06F0010E0C6E1DDDBFEF20
:100D7A0006F0FF0E0250036E0150026E0050016E23
:060D8A000850006E12008B
:100D90000B6A0A6A096A086A0E6A03340836045044
:100DA000085E0550D8A0053C095E0650D8A0063C58
:100DB0000A5E0750D8A0073C0B5EE86AD8A0010E77
:100DC0000E5E0336070E0C6E0334083609360A36FB
:100DD0000B360E36045003A012D0085E0550D8A082
:100DE000053C095E0650D8A0063C0A5E0750D8A014
:100DF000073C0B5EE86AD8A0010E0E5E11D00826F3
:100E00000550D8B0053C09260650D8B0063C0A2645
:100E10000750D8B0073C0B26E86AD8B0010E0E2662
:100E200003360C2ED1D70234083609360A360B3673
:100E30000E36045003A012D0085E0550D8A0053C21
:100E4000095E0650D8A0063C0A5E0750D8A0073CB1
:100E50000B5EE86AD8A0010E0E5E11D00826055080
:100E6000D8B0053C09260650D8B0063C0A260750E3
:100E7000D8B0073C0B26E86AD8B0010E0E26023621
:100E8000070E0C6E0234083609360A360B360E365B
:100E9000045002A012D0085E0550D8A0053C095E9F
:100EA0000650D8A0063C0A5E0750D8A0073C0B5E4F
:100EB000E86AD8A0010E0E5E11D008260550D8B001
:100EC000053C09260650D8B0063C0A260750D8B083
:100ED000073C0B26E86AD8B0010E0E2602360C2E0F
:100EE000D1D70134083609360A360B360E3604508F
:100EF00002A012D0085E0550D8A0053C095E06503D
:100F0000D8A0063C0A5E0750D8A0073C0B5EE86AF2
:100F1000D8A0010E0E5E11D008260550D8B0053CB1
:100F200009260650D8B0063C0A260750D8B0073C20
:100F30000B26E86AD8B0010E0E260136070E0C6E9D
:100F40000134083609360A360B360E36045001A035
:100F500012D0085E0550D8A0053C095E0650D8A006
:100F6000063C0A5E0750D8A0073C0B5EE86AD8A092
:100F7000010E0E5E11D008260550D8B0053C09269A
:100F80000650D8B0063C0A260750D8B0073C0B26BE
:100F9000E86AD8B0010E0E2601360C2ED1D70034E7
:100FA000083609360A360B360E36045001A012D028
:100FB000085E0550D8A0053C095E0650D8A0063C46
:100FC0000A5E0750D8A0073C0B5EE86AD8A0010E65
:100FD0000E5E11D008260550D8B0053C09260650F3
:100FE000D8B0063C0A260750D8B0073C0B26E86A62
:100FF000D8B0010E0E260036070E0C6E00340836EF
:1010000009360A360B360E36045000A012D0085EA0
:101010000550D8A0053C095E0650D8A0063C0A5EE3
:101020000750D8A0073C0B5EE86AD8A0010E0E5E00
:1010300011D008260550D8B0053C09260650D8B076
:10104000063C0A260750D8B0073C0B26E86AD8B001
:10105000010E0E2600360C2ED1D700B00ED0045053
:1010600008260550D8B0053C09260650D8B0063CE5
:0C1070000A260750D8B0073C0B261200DF
:10107C000050086E0150006E0250016E0350026E5B
:10108C00036A0B6A0C6A9E0E036E0A6A020E0C6EE1
:06109C0032EC00F012002E
:1010A2000450000A08E10550000A05E1FF0E006E37
:1010B2007F0E016E58D00D6A096A086A015000104D
:1010C200D8B4000C015005180A6E0ABE0D1E0B6A38
:1010D20005AE05D0041E051E042AD8B4052A01AEA9
:1010E20005D0001E011E002AD8B4012A01500510A5
:1010F2000A6E0ABE10D0F7EC03F00BB020D00DAE92
:10110200000C001E011E002AD8B4012A081E091E66
:10111200082AD8B4092A000C05AE0DD001BE07D0AA
:101122000150096E0050086E016A006AE8D7016A30
:10113200006A002A000C011E001E0B2ADDD7082AB5
:10114200D8B4092A0450085CD8A4D9D70550095C40
:10115200D8A4D5D7096A086A002AD8B4012A01AEF0
:08116200CED70000FF0C1200C3
:10116A0000016B51390806E3300E6B5D03E3010E93
:08117A00006E01D0006A1200B2
:101182000450000A12E10550000A0FE10650000A5D
:101192000CE10750000A09E1FF0E006EFF0E016E1E
:1011A2007F0E026EFF0E036EA8D0086A096A07500E
:1011B200D8B46CEF09F00350D8B471EF09F00250C3
:1011C20006180A6E028E068E0E6A02C008F001C070
:1011D2000CF000C00DF004500D5E0550D8A0053C87
:1011E2000C5E0650D8A0063C085E086A0C6A0D6ABE
:1011F200D8A003EF09F0D89002320132003208324F
:10120200010E0E6E0750035ED8A010EF09F07E0E9D
:101212000E240326D8B076EF09F016EF09F07E0E01
:101222000E240326D8A07BEF09F0180E0B6E0D36A4
:101232000C3608360036013602360E360450005E91
:101242000550D8A0053C015E0650D8A0063C025EBF
:1012520006340E120EA031EF09F00D803CEF09F0BA
:10126200045000260550D8B0053C01260650D8B0DF
:10127200062802260D900B2E18EF09F062EF09F0F6
:10128200D8900036013602360E360450005E055004
:10129200D8A0053C015E0650D8A0063C025E06348A
:1012A2000E10010B0D26D8B00C2AD8B4082AD8A4E7
:1012B20062EF09F008320C320D32032AD8B476EF0D
:1012C20009F00AAE089E0850026E0C50016E0D50D5
:1012D200006E7EEF09F0010E23EC01F07EEF09F0C3
:1012E200020E1AEC00F07EEF09F0040E0EEC00F094
:0C12F2007EEF09F0080E25EC00F0120061
:1012FE00800E00016B19006E800E000A005CD8B0E3
:10130E006DD16B510008016E01C06BF0800E01189B
:10131E00006E800E6E0A005CD8A0C0D0640E046E03
:10132E006BC000F023EC04F0120E0024056E000ECC
:10133E0000BEFF0E066E000E062205C000F006C0AF
:10134E0001F0000E06BEFF0E026E036E0036009018
:10135E000136023603360036009001360236033669
:10136E001A0E0024F66E3F0E0120F76E000E0220BC
:10137E00F86E0900F5CF6CF00900F5CF6DF009009D
:10138E00F5CF6EF00900F5CF6FF0640E046E6BC0F2
:10139E0000F023EC04F008C000F00A0E046E23ECFB
:1013AE0004F0090E0024056E000E00BEFF0E066E40
:1013BE00000E062205C000F006C001F0000E06BEAB
:1013CE00FF0E026E036E00360090013602360336B3
:1013DE00003600900136023603361A0E0024F66EE1
:1013EE003F0E0120F76E000E0220F86E0900F5CFB9
:1013FE0000F00900F5CF01F00900F5CF02F0090069
:10140E00F5CF03F06CC004F06DC005F06EC006F0B1
:10141E006FC007F039EC01F000C06CF001C06DF048
:10142E0002C06EF003C06FF00A0E046E6BC000F0C7
:10143E0023EC04F008C000F000C001F0000E00BE66
:10144E00FF0E026E036E046E0136019002360336F5
:10145E000436013601900236033604361A0E012484
:10146E00F66E3F0E0220F76E000E0320F86E090096
:10147E00F5CF00F00900F5CF01F00900F5CF02F02D
:10148E000900F5CF03F06CC004F06DC005F06EC01E
:10149E0006F06FC007F039EC01F007D2800E0A0A91
:1014AE00006E800E6B19005C71E20A0E046E6BC04A
:1014BE0000F023EC04F0090E0024056E000E00BEB1
:1014CE00FF0E066E000E062205C000F006C001F0EB
:1014DE00000E06BEFF0E026E036E00360090013641
:1014EE0002360336003600900136023603361A0EE7
:1014FE000024F66E3F0E0120F76E000E0220F86EED
:10150E000900F5CF6CF00900F5CF6DF00900F5CFAD
:10151E006EF00900F5CF6FF00A0E046E6BC000F08E
:10152E0023EC04F008C000F000C001F0000E00BE75
:10153E00FF0E026E036E046E013601900236033604
:10154E000436013601900236033604361A0E012493
:10155E00F66E3F0E0220F76E000E0320F86E0900A5
:10156E00F5CF00F00900F5CF01F00900F5CF02F03C
:10157E000900F5CF03F06CC004F06DC005F06EC02D
:10158E0006F06FC007F039EC01F08FD16BC000F0A0
:10159E00000E6BBFFF0E016E026E036E00360090E2
:1015AE000136023603360036009001360236033617
:1015BE001A0E0024F66E3F0E0120F76E000E02206A
:1015CE00F86E0900F5CF00F00900F5CF01F0090023
:1015DE00F5CF02F00900F5CF03F067D1800E6B193D
:1015EE00006E800E6E0A005CD8A0C0D0640E046E31
:1015FE006BC000F023EC04F0120E0024056E000EFA
:10160E0000BEFF0E066E000E062205C000F006C0DC
:10161E0001F0000E06BEFF0E026E036E0036009045
:10162E000136023603360036009001360236033696
:10163E00E60E0024F66E3E0E0120F76E000E02201E
:10164E00F86E0900F5CF6CF00900F5CF6DF00900CA
:10165E00F5CF6EF00900F5CF6FF0640E046E6BC01F
:10166E0000F023EC04F008C000F00A0E046E23EC28
:10167E0004F0090E0024056E000E00BEFF0E066E6D
:10168E00000E062205C000F006C001F0000E06BED8
:10169E00FF0E026E036E00360090013602360336E0
:1016AE0000360090013602360336E60E0024F66E42
:1016BE003E0E0120F76E000E0220F86E0900F5CFE7
:1016CE0000F00900F5CF01F00900F5CF02F0090096
:1016DE00F5CF03F06CC004F06DC005F06EC006F0DF
:1016EE006FC007F039EC01F000C06CF001C06DF076
:1016FE0002C06EF003C06FF00A0E046E6BC000F0F5
:10170E0023EC04F008C000F000C001F0000E00BE93
:10171E00FF0E026E036E046E013601900236033622
:10172E00043601360190023603360436E60E0124E5
:10173E00F66E3E0E0220F76E000E0320F86E0900C4
:10174E00F5CF00F00900F5CF01F00900F5CF02F05A
:10175E000900F5CF03F06CC004F06DC005F06EC04B
:10176E0006F06FC007F039EC01F09FD0800E0A0A28
:10177E00006E800E6B19005C71E20A0E046E6BC077
:10178E0000F023EC04F0090E0024056E000E00BEDE
:10179E00FF0E066E000E062205C000F006C001F018
:1017AE00000E06BEFF0E026E036E0036009001366E
:1017BE000236033600360090013602360336E60E48
:1017CE000024F66E3E0E0120F76E000E0220F86E1B
:1017DE000900F5CF6CF00900F5CF6DF00900F5CFDB
:1017EE006EF00900F5CF6FF00A0E046E6BC000F0BC
:1017FE0023EC04F008C000F000C001F0000E00BEA3
:10180E00FF0E026E036E046E013601900236033631
:10181E00043601360190023603360436E60E0124F4
:10182E00F66E3E0E0220F76E000E0320F86E0900D3
:10183E00F5CF00F00900F5CF01F00900F5CF02F069
:10184E000900F5CF03F06CC004F06DC005F06EC05A
:10185E0006F06FC007F039EC01F027D06BC000F036
:10186E00000E6BBFFF0E016E026E036E003600900F
:10187E000136023603360036009001360236033644
:10188E00E60E0024F66E3E0E0120F76E000E0220CC
:10189E00F86E0900F5CF00F00900F5CF01F0090050
:0C18AE00F5CF02F00900F5CF03F01200A6
:1018BA000A6A0350D8A40A800750D8A40A820A5098
:1018CA00D8B4C0EF0CF0030AD8B479EF0CF00AB020
:1018DA0074EF0CF006AEBEEF0CF0BCEF0CF002AEEB
:1018EA00BCEF0CF0BEEF0CF00250800B0A6E029EA9
:1018FA000650800B069E0A18D8B48AEF0CF00A50DC
:10190A00D8B4BCEF0CF0BEEF0CF00750035CD8B4AF
:10191A0094EF0CF0D8A0B0EF0CF0B6EF0CF0065034
:10192A00025CD8B49EEF0CF0D8A0B0EF0CF0B6EF82
:10193A000CF00550015CD8B4A8EF0CF0D8A0B0EFB9
:10194A000CF0B6EF0CF00450005CD8B4C0EF0CF009
:10195A00D8B0B6EF0CF00A52D8B4BEEF0CF0BCEF18
:10196A000CF00A52D8B4BCEF0CF0BEEF0CF0D880E1
:0E197A001200D8901200D880D88412001200FB
:101988000B6A0C6A086A0350D8B448EF0DF002C01D
:101998000AF0028E9E0E035E03AE38EF0DF0036C64
:1019A800080E035CD8A005EF0DF0036E083600C0E2
:1019B80008F001C000F002C001F0026A080E035CE2
:1019C800D8A005EF0DF0036E083600C008F001C07E
:1019D80000F0016A080E035CD8A005EF0DF0036E55
:1019E800083600C008F0006A080E035CD8A005EFAE
:1019F8000DF0036E0836086A0350D8A4D89011EF8A
:101A08000DF00350D8B411EF0DF0D8900232013226
:101A180000320832032E09EF0DF00BBC08A022EFAC
:101A28000DF0D8A022EF0DF0082AD8B4002AD8B4B7
:101A3800012AD8B4022A02BE4CEF0DF00AAE48EFD4
:101A48000DF0021E011E001E081E082AD8B4002A26
:101A5800D8B4012AD8B4022A48EF0DF0026A016A04
:101A6800006A086A48EF0DF00B800BAE53EF0DF0DB
:101A7800026A0AAE53EF0DF0026E016E006E086E38
:101A88000A36023253EF0DF00C6A000E54EF0DF0D7
:101A9800010E0C6E000ED9EC03F054EF0DF0FF0EA2
:101AA8000250036E0150026E0050016E0850006E25
:021AB80012001A
:081ABA00067EC9EC01F01200E8
:101AC20003500718D8A475EF0DF002500618D8A4D9
:101AD20075EF0DF001500518D8A475EF0DF0005008
:0E1AE2000418D8B4D8841200D8941200120050
:101AF0000B6A0A6A096A00500402F4CF09F0F3CFB6
:101B000008F001500502F4CF0BF0F3CF0AF00050BB
:101B10000502F3500926F4500A22E86A0B2201500C
:101B20000402F3500926F4500A22E86A0B2208C086
:101B300000F009C001F00AC002F00BC003F012006F
:101B40000001636B646B576A586A45C000F046C079
:101B500001F047C002F0010E4526000E4622472242
:101B600000C0F6FF01C0F7FF02C0F8FF0900F5CF83
:101B700000F000C054F00052D8B4CBEF1DF0545028
:101B8000250A0CE0000143C0E1FF44C0E2FF54C05D
:101B9000E6FF434A442A634B642BD7D7556A566AFB
:101BA000576A586A23D05786010E4526000E4622F2
:101BB000472259D05780010E4526000E4622472263
:101BC00052D05782010E4526000E462247224BD0A6
:101BD0005886010E4526000E4622472244D05784DF
:101BE000010E4526000E462247223DD045C0F6FF95
:101BF00046C0F7FF47C0F8FF0900F5CF01F00150DC
:101C00002D0AD1E045C0F6FF46C0F7FF47C0F8FFF8
:101C10000900F5CF01F00150200ACCE045C0F6FFE5
:101C200046C0F7FF47C0F8FF0900F5CF01F00150AB
:101C30002B0AC7E045C0F6FF46C0F7FF47C0F8FFD4
:101C40000900F5CF01F00150230AC2E045C0F6FFBC
:101C500046C0F7FF47C0F8FF0900F5CF01F001507B
:101C6000300ABDE001D09ED757B2579057B657946F
:101C700045C0F6FF46C0F7FF47C0F8FF0900F5CFA3
:101C800000F0000E016E00C06BF0B5EC08F00052E1
:101C900035E0556A566A55C000F056C001F00A0E8C
:101CA000046E000E056E24DF45C0F6FF46C0F7FF48
:101CB00047C0F8FF0900F5CF02F002500024556E2E
:101CC000000E0120566E300E555E000E565A010E63
:101CD0004526000E4622472245C0F6FF46C0F7FFC4
:101CE00047C0F8FF0900F5CF00F0000E016E00C0FC
:101CF0006BF0B5EC08F00052CEE133D045C0F6FFF2
:101D000046C0F7FF47C0F8FF0900F5CF01F00150CA
:101D10002A0A27E148C0E9FF49C0EAFFEECF00F0F8
:101D2000EECF01F000C0E9FF01C0EAFFEECF55F0B1
:101D3000EECF56F048C0E9FF49C0EAFF020EEE249C
:101D4000006E000EEE20016E48C0E1FF49C0E2FFC8
:101D500000C0E6FF01C0E6FF010E4526000E462248
:101D6000472245C0F6FF46C0F7FF47C0F8FF09000D
:101D7000F5CF01F001502E0A6FE1010E4526000E4D
:101D80004622472245C0F6FF46C0F7FF47C0F8FF8E
:101D90000900F5CF01F001502A0A28E148C0E9FF07
:101DA00049C0EAFFEECF00F0EECF01F000C0E9FF3E
:101DB00001C0EAFFEECF52F0EECF53F048C0E9FF8A
:101DC00049C0EAFF020EEE24006E000EEE20016E06
:101DD00048C0E1FF49C0E2FF00C0E6FF01C0E6FFE6
:101DE000010E4526000E4622472235D0526A536A1C
:101DF00045C0F6FF46C0F7FF47C0F8FF0900F5CF22
:101E000000F0000E016E00C06BF0B5EC08F000525F
:101E100022E052C000F053C001F00A0E046E000E22
:101E2000056E66DE45C0F6FF46C0F7FF47C0F8FF07
:101E30000900F5CF02F002500024526E000E01207E
:101E4000536E300E525E000E535A010E4526000EA0
:101E500046224722CDD703D0526A536A588845C0DC
:101E600000F046C001F047C002F0010E4526000E0A
:101E70004622472200C0F6FF01C0F7FF02C0F8FF6C
:101E80000900F5CF54F0FBD063C000F064C001F04E
:101E9000CFEF1DF05788E3D7588430D1578A588048
:101EA0002DD158822BD1578C29D128D1578A578EC2
:101EB00025D1000148C0E9FF49C0EAFFEECF00F09C
:101EC000EECF01F000C0E9FF01C0EAFFEECF5FF006
:101ED000EECF60F048C0E9FF49C0EAFF020EEE24F1
:101EE000006E000EEE20016E48C0E1FF49C0E2FF27
:101EF00000C0E6FF01C0E6FF000E601902E1000E1F
:101F00005F1804E1170E5F6E000E606F616B626B0D
:101F100061515F24E96E62516021EA6EEE520BE07E
:101F2000010E6125006E000E6221016E00C061F09D
:101F300001C062F0EDD7525053100AE06251535C79
:101F400002E16151525C04E252C061F053C062F0A0
:101F50005650625D02E15550615D05E26151555E8A
:101F60006251565A02D0556A566A57B616D055C0B5
:101F700000F056C001F0010E555E000E565A00509A
:101F800001100BE043C0E1FF44C0E2FF200EE66E0B
:101F9000434A442A634B642BEAD761C002F062C013
:101FA00003F0010E615D006E000E6259016E00C00B
:101FB00061F001C062F00250031019E05FC0E9FF58
:101FC00060C0EAFF43C0E1FF44C0E2FFEECFE6FF9E
:101FD000434A442A010E5F24006E000E6021016E08
:101FE00000C05FF001C060F0634B642BD6D757A6EA
:101FF00016D055C000F056C001F0010E555E000E1F
:10200000565A005001100BE043C0E1FF44C0E2FF0C
:10201000200EE66E434A442A634B642BEAD795D5DB
:1020200048C0E9FF49C0EAFFEECF00F0EECF01F073
:1020300000C0E9FF01C0EAFFEECF54F048C0E9FF5D
:1020400049C0EAFF020EEE24006E000EEE20016E83
:1020500048C0E1FF49C0E2FF00C0E6FF01C0E6FF63
:102060000001540E5F6E000E606F010E616F000E76
:10207000626F61D7C00E5712000E58123FD05450F5
:10208000000AD8B401D754506C0AD8B403D75450BE
:102090004C0AD8B4FFD65450660AD8B4FDD6545072
:1020A000450AD8B4FBD65450650AD8B4F8D6545073
:1020B000670AD8B4F6D654506F0AD8B4F4D6545040
:1020C000640AD8B4F2D65450690AD8B4EED6545043
:1020D000700AD8B4EBD65450580AD8B4E7D6545046
:1020E000780AD8B4E4D65450730AD8B4E2D654501F
:1020F000630A96E05450750ABDE0B2D7000E57143B
:10210000006E5850070B016E00500110D8B45EEFFE
:1021100019F058A804D0060E526E000E536E48C037
:10212000E9FF49C0EAFFEECF00F0EECF01F000C0BA
:10213000E9FF01C0EAFFEECF59F0EECF5AF0EECF43
:102140005BF0EECF5CF048C0E9FF49C0EAFF040E47
:10215000EE24006E000EEE20016E48C0E1FF49C083
:10216000E2FF00C0E6FF01C0E6FF046A056A066AF6
:10217000076A59C000F05AC001F05BC002F05CC0B1
:1021800003F05DEC0CF0010ED8B0000E006E0052B2
:1021900005E05B7E030E5712000E58125D6A5E6A00
:1021A00059C000F05AC001F05BC002F05CC003F0FF
:1021B000046A056A066A076A84DC000ED8A4010E68
:1021C000006E0052D8B488D05CC000F0016A026A88
:1021D000036AFF0E0016000E01167E0E005E000E52
:1021E000015A00C05DF001C05EF0010E005E000EFD
:1021F000015A00C05DF001C05EF0030E046E000ED7
:10220000056E76DC00C05DF001C05EF00A0E046E63
:10221000000E056E51EC08F000C05DF001C05EF0EC
:10222000800E0118026E800E025C02E1000E005C5E
:1022300004E2010E5D5E000E5E5A5D500008000172
:102240006B6F7FEC09F059C004F05AC005F05BC019
:1022500006F05CC007F039EC01F000C05FF001C08F
:1022600060F002C061F003C062F0000E046E000E68
:10227000056E000E066E7F0E076E5FC000F060C038
:1022800001F061C002F062C003F05DEC0CF0010EE1
:10229000D8B0000E006E005205E0010E5D5E000E2B
:1022A0005E5A1AD0000E046E000E056E200E066EE9
:1022B000820E076E5FC000F060C001F061C002F0E6
:1022C00062C003F05DEC0CF0000ED8B0010E006EA1
:1022D000005202E05D4A5E2A800E006E800E5E189B
:1022E000005C02E15D50000803E3010E546E02D071
:1022F0005DC054F058B018D058A215D0800E5E18AA
:10230000006E7F0E005C02E1FC0E5D5C0BE3800E54
:102310005E18006E800E5318005C02E152505D5C46
:1023200001E201D001D0F3D35250531006E058A27D
:1023300004D0010E525E000E535A5350000802E1C1
:102340005250080803E2080E546E02D052C054F0F6
:1023500059C000F05AC001F05BC002F05CC003F04D
:10236000046A056A066A076A61EC0DF0000ED8A4DB
:10237000010E006E0052D8B448D15DC06BF07FEC06
:1023800009F000C004F001C005F002C006F003C06F
:1023900007F059C000F05AC001F05BC002F05CC009
:1023A00003F0C1EC08F000C059F001C05AF002C0BF
:1023B0005BF003C05CF05450000800016B6F7FECD1
:1023C00009F000C004F001C005F002C006F003C02F
:1023D00007F059C000F05AC001F05BC002F05CC0C9
:1023E00003F0C1EC08F000C065F001C066F002C067
:1023F00067F003C068F065C059F066C05AF067C066
:102400005BF068C05CF065C000F066C001F067C0BA
:1024100002F068C003F02DEC06F03EEC08F000C0BE
:1024200004F001C005F002C006F003C007F065C06B
:1024300000F066C001F067C002F068C003F05DEC18
:102440000DF0000E046E000E056E000E066E7E0E80
:10245000076E5DEC0CF0000ED8B0010E006E00525D
:102460001AE059C000F05AC001F05BC002F05CC035
:1024700003F0000E046E000E056E000E066E7E0E5A
:10248000076EC9EC01F000C059F001C05AF002C05B
:102490005BF003C05CF059C000F05AC001F05BC0B3
:1024A00002F05CC003F02DEC06F05450010F096EF1
:1024B0000A6A000E0A2209C004F00AC005F0000EE4
:1024C0000ABEFF0E066E076E043604900536063609
:1024D0000736043604900536063607367E0E042489
:1024E000F66E3F0E0520F76E000E0620F86E09000E
:1024F000F5CF05F00900F5CF06F00900F5CF07F09C
:102500000900F5CF08F00850035C08E10750025CB1
:1025100005E10650015C02E10550005C1DE359C075
:1025200000F05AC001F05BC002F05CC003F0CD0EB9
:10253000046ECC0E056E4C0E066E7B0E076E39ECEB
:1025400001F000C059F001C05AF002C05BF003C0B6
:102550005CF05D4A5E2A59D059C000F05AC001F0C3
:102560005BC002F05CC003F02DEC06F054C004F038
:10257000000E056E066E076E0436049005360636AC
:102580000736043604900536063607367E0E0424D8
:10259000F66E3F0E0520F76E000E0620F86E09005D
:1025A000F5CF05F00900F5CF06F00900F5CF07F0EB
:1025B0000900F5CF08F00850035C08E10750025C01
:1025C00005E10650015C02E10550005C1EE259C0C5
:1025D00000F05AC001F05BC002F05CC003F0000ED6
:1025E000046E000E056E200E066E820E076E39EC2C
:1025F00001F000C059F001C05AF002C05BF003C006
:102600005CF0010E5D5E000E5E5A58A295D058B681
:1026100093D0800E000A006E800E5318005C02E119
:1026200052500A0804E20A0E526E000E536E59C050
:1026300000F05AC001F05BC002F05CC003F02DEC6A
:1026400006F000C05FF001C060F002C061F003C09E
:1026500062F05F50000160116111621142E00A0EE8
:10266000046E000E056E066E076E5FC000F060C05F
:1026700001F061C002F062C003F0C8EC06F008C0CF
:1026800000F009C001F00AC002F00BC003F0000E18
:10269000046E031808E10450021805E10450011803
:1026A00002E10050000A1DE1010E525E000E535A75
:1026B0000A0E046E000E056E066E076E5FC000F017
:1026C00060C001F061C002F062C003F0C8EC06F027
:1026D00000C05FF001C060F002C061F003C062F0B2
:1026E000B8D7800E5318006E800E005C02E1545083
:1026F000525C22E200015250545C6B6F7FEC09F097
:1027000000C004F001C005F002C006F003C007F0ED
:1027100059C000F05AC001F05BC002F05CC003F089
:10272000C1EC08F000C059F001C05AF002C05BF0E3
:1027300003C05CF052C054F0050E5224006E000E2F
:102740005320016E0050555E0150565A525053109E
:1027500003E158B601D004D0010E555E000E565A62
:10276000030E5714006E58C001F0000E0116005001
:10277000011004E0010E555E000E565A57A43CD0DD
:1027800057A213D057A003D02D0E4A6E02D02B0EA5
:102790004A6E43C0E1FF44C0E2FF4AC0E6FF434A3D
:1027A000442A0001634B642B0DD057A00BD00001CD
:1027B00043C0E1FF44C0E2FF200EE66E434A442AD4
:1027C000634B642B800E006E800E5618005C02E195
:1027D0005550000810E2000143C0E1FF44C0E2FF91
:1027E000300EE66E434A442A634B642B010E555E5D
:1027F000000E565AE7D73DD057B619D0800E006E5E
:10280000800E5618005C02E15550000810E20001ED
:1028100043C0E1FF44C0E2FF200EE66E434A442A73
:10282000634B642B010E555E000E565AE7D757A234
:1028300013D057A003D02D0E4B6E02D02B0E4B6E33
:10284000000143C0E1FF44C0E2FF4BC0E6FF434A42
:10285000442A634B642B0DD057A00BD0000143C01A
:10286000E1FF44C0E2FF200EE66E434A442A634B78
:10287000642B000159C000F05AC001F05BC002F0A7
:102880005CC003F02DEC06F000C05FF001C060F00A
:1028900002C061F003C062F054C000F0000E016E8F
:1028A000026E036E003600900136023603360036A3
:1028B00000900136023603367E0E0024F66E3F0E7F
:1028C0000120F76E000E0220F86E0900F5CF04F02B
:1028D0000900F5CF05F00900F5CF06F00900F5CFA6
:1028E00007F05FC000F060C001F061C002F062C09C
:1028F00003F0C8EC06F0300E002643C0E1FF44C0F0
:10290000E2FF00C0E6FF434A442A634B642B525067
:10291000531003E158B601D06FD043C0E1FF44C06B
:10292000E2FF2E0EE66E434A442A634B642B54505A
:10293000525E000E535A54524DE0540654C000F0FB
:10294000000E016E026E036E0036009001360236F4
:102950000336003600900136023603367E0E002420
:10296000F66E3F0E0120F76E000E0220F86E090091
:10297000F5CF04F00900F5CF05F00900F5CF06F01A
:102980000900F5CF07F05FC000F060C001F061C042
:1029900002F062C003F0C8EC06F00A0E046E000EEE
:1029A000056E066E076EC8EC06F008C000F009C0A0
:1029B00001F00AC002F00BC003F0300E002643C045
:1029C000E1FF44C0E2FF00C0E6FF434A442A634BF4
:1029D000642BB1D7525053100FE043C0E1FF44C005
:1029E000E2FF300EE66E434A442A634B642B010E2D
:1029F000525E000E535AEED757AA0BD043C0E1FFE8
:102A000044C0E2FF450EE66E434A442A634B642B02
:102A10000AD043C0E1FF44C0E2FF650EE66E434AC0
:102A2000442A634B642B800E5E18006E800E005C9F
:102A300002E1000E5D5C11E25D5000085D6E5E50CB
:102A4000000E5E5643C0E1FF44C0E2FF2D0EE66E6D
:102A5000434A442A634B642B0AD043C0E1FF44C07D
:102A6000E2FF2B0EE66E434A442A634B642B0A0EA8
:102A7000046E000E056E5DC000F05EC001F051EC0A
:102A800008F0300E002643C0E1FF44C0E2FF00C062
:102A9000E6FF434A442A0001634B642B0A0E046E8E
:102AA000000E056E5DC000F05EC001F051EC08F054
:102AB00008C000F009C001F0300E002643C0E1FF5D
:102AC00044C0E2FF00C0E6FF434A442A0001634BD2
:102AD000642B57A61AD0800E006E800E5618005C2C
:102AE00002E15550000811E243C0E1FF44C0E2FF9B
:102AF000200EE66E434A442A634B642B010E555E5A
:102B0000000E565A55505610EFE1A5EF0DF058A2A1
:102B1000F5D0800E5E18006E800E005C02E1000EA3
:102B20005D5C0AE2010E5D5C006E000E5E58016E97
:102B30000050525E0150535A59C000F05AC001F083
:102B40005BC002F05CC003F02DEC06F000C05FF04B
:102B500001C060F002C061F003C062F0010E546E6B
:102B600054500A0A35E0000154C000F0000E016E16
:102B7000026E036E003600900136023603360036D0
:102B800000900136023603367E0E0024F66E3F0EAC
:102B90000120F76E000E0220F86E0900F5CF01F05B
:102BA0000900F5CF02F00900F5CF03F00900F5CFD9
:102BB00004F00450625D08E10350615D05E10250DC
:102BC000605D02E101505F5C01E202D0542AC8D787
:102BD00000015450525C696F000E53586A6F69C00F
:102BE00052F06AC053F05FC000F060C001F061C0F5
:102BF00002F062C003F03EEC08F000C004F001C037
:102C000005F002C006F003C007F059C000F05AC03A
:102C100001F05BC002F05CC003F05DEC0DF000C0A1
:102C200065F001C066F002C067F003C068F069C0DB
:102C30006BF07FEC09F065C004F066C005F067C07A
:102C400006F068C007F039EC01F0000E046E000ECB
:102C5000056E000E066E7E0E076EC9EC01F02DECBF
:102C600006F000C05FF001C060F002C061F003C078
:102C700062F05250531042E00A0E046E000E056ED0
:102C8000066E076E5FC000F060C001F061C002F028
:102C900062C003F0C8EC06F008C000F009C001F003
:102CA0000AC002F00BC003F0000E046E031808E126
:102CB0000450021805E10450011802E10050000A16
:102CC0001DE10A0E046E000E056E066E076E5FC0F3
:102CD00000F060C001F061C002F062C003F0C8EC17
:102CE00006F000C05FF001C060F002C061F003C0F8
:102CF00062F0010E525E000E535ABBD7800E006E7A
:102D0000800E5318005C02E152500C0816E352C0CA
:102D10006BF072EC04F059C004F05AC005F05BC0CF
:102D200006F05CC007F0C9EC01F000C059F001C02A
:102D30005AF002C05BF003C05CF059C000F05AC00A
:102D400001F05BC002F05CC003F0046A056A066A29
:102D5000076A61EC0DF0000ED8A4010E006E00525F
:102D6000D8B474D059C000F05AC001F05BC002F072
:102D70005CC003F02DEC06F0000E046E031808E1B1
:102D80000450021805E10450011802E10050000A45
:102D90005DE1800E006E800E5E18005C02E15D5009
:102DA000010854E25DC06BF07FEC09F000C004F054
:102DB00001C005F002C006F003C007F059C000F0E2
:102DC0005AC001F05BC002F05CC003F0C1EC08F037
:102DD0005F0E046E700E056E090E066E810E076E94
:102DE0005DEC0CF0010ED8B0000E006E005205E054
:102DF000090E5D5E000E5E5A04D0080E5D5E000E88
:102E00005E5A5DC06BF07FEC09F000C004F001C0B9
:102E100005F002C006F003C007F059C000F05AC028
:102E200001F05BC002F05CC003F0C1EC08F02DECD7
:102E300006F000C05FF001C060F002C061F003C0A6
:102E400062F0596A5A6A5B6A5C6A38D059C000F00D
:102E50005AC001F05BC002F05CC003F02DEC06F03C
:102E600000C05FF001C060F002C061F003C062F01A
:102E70005FC000F060C001F061C002F062C003F00A
:102E80003EEC08F000C004F001C005F002C006F0FE
:102E900003C007F059C000F05AC001F05BC002F057
:102EA0005CC003F05DEC0DF000C059F001C05AF0B9
:102EB00002C05BF003C05CF05D6A5E6A010E546E96
:102EC00054500A0A35E054C000F0000E016E026E44
:102ED000036E00360090013602360336003600904D
:102EE0000136023603367E0E0024F66E3F0E0120B8
:102EF000F76E000E0220F86E0900F5CF01F0090010
:102F0000F5CF02F00900F5CF03F00900F5CF04F08A
:102F100004500001625D08E10350615D05E102506B
:102F2000605D02E101505F5C01E202D0542AC8D723
:102F300054505224006E000E5320016E5D50002646
:102F40005E5001220050555E0150565A58B604D0CA
:102F50005250531001E104D0010E555E000E565A36
:102F6000030E5714006E58C001F0000E01160050F9
:102F7000011004E0010E555E000E565A57A43CD0D5
:102F800057A213D057A003D02D0E4C6E02D02B0E9B
:102F90004C6E000143C0E1FF44C0E2FF4CC0E6FFBD
:102FA000434A442A634B642B0DD057A00BD0000139
:102FB00043C0E1FF44C0E2FF200EE66E434A442ACC
:102FC000634B642B800E006E800E5618005C02E18D
:102FD0005550000810E2000143C0E1FF44C0E2FF89
:102FE000300EE66E434A442A634B642B010E555E55
:102FF000000E565AE7D73DD057B619D0800E006E56
:10300000800E5618005C02E15550000810E20001E5
:1030100043C0E1FF44C0E2FF200EE66E434A442A6B
:10302000634B642B010E555E000E565AE7D757A22C
:1030300013D057A003D02D0E4D6E02D02B0E4D6E27
:10304000000143C0E1FF44C0E2FF4DC0E6FF434A38
:10305000442A634B642B0DD057A00BD0000143C012
:10306000E1FF44C0E2FF200EE66E434A442A634B70
:10307000642B54C000F0540600524DE0000154C0CF
:1030800000F0000E016E026E036E003600900136F5
:1030900002360336003600900136023603367E0EC5
:1030A0000024F66E3F0E0120F76E000E0220F86E2F
:1030B0000900F5CF04F00900F5CF05F00900F5CFC0
:1030C00006F00900F5CF07F05FC000F060C001F026
:1030D00061C002F062C003F0C8EC06F00A0E046E94
:1030E000000E056E066E076EC8EC06F008C000F014
:1030F00009C001F00AC002F00BC003F0300E002638
:1031000043C0E1FF44C0E2FF00C0E6FF434A442A57
:10311000634B642BAED7800E006E800E5E18005C91
:1031200002E15D50000810E2000143C0E1FF44C02D
:10313000E2FF300EE66E434A442A634B642B010ED5
:103140005D5E000E5E5AE7D7800E000A006E800EAC
:103150005318005C02E15250080803E2080E546E56
:1031600002D052C054F05450525E000E535A545282
:1031700003E158B601D00BD0000143C0E1FF44C0C9
:10318000E2FF2E0EE66E434A442A634B642B54C082
:103190006BF07FEC09F059C004F05AC005F05BC039
:1031A00006F05CC007F039EC01F0C4EC0CF000C094
:1031B0005FF001C060F002C061F003C062F05452E1
:1031C0004DE0540654C000F0000E016E026E036E16
:1031D0000036009001360236033600360090013684
:1031E000023603367E0E0024F66E3F0E0120F76E87
:1031F000000E0220F86E0900F5CF04F00900F5CFAB
:1032000005F00900F5CF06F00900F5CF07F05FC023
:1032100000F060C001F061C002F062C003F0C8ECD1
:1032200006F00A0E046E000E056E066E076EC8EC00
:1032300006F008C000F009C001F00AC002F00BC09F
:1032400003F0300E002643C0E1FF44C0E2FF00C09F
:10325000E6FF434A442A634B642BB1D752505310C4
:103260000FE043C0E1FF44C0E2FF300EE66E434A88
:10327000442A634B642B010E525E000E535AEED764
:1032800057A61AD0800E006E800E5618005C02E120
:103290005550000811E243C0E1FF44C0E2FF200E98
:1032A000E66E434A442A634B642B010E555E000EC2
:1032B000565A55505610EFE1A5EF0DF0C00E5714B9
:1032C000016E58C002F0000E0216000E021802E154
:1032D000000E0118D8A481D057A827D048C0E9FF14
:1032E00049C0EAFFEECF00F0EECF01F000C0E9FFE9
:1032F00001C0EAFFEECF5FF0EECF60F0EECF61F0FD
:10330000EECF62F048C0E9FF49C0EAFF040EEE24A8
:10331000006E000EEE20016E48C0E1FF49C0E2FFE2
:1033200000C0E6FF01C0E6FF2FD048C0E9FF49C05A
:10333000EAFFEECF00F0EECF01F000C0E9FF01C0E0
:10334000EAFFEECF00F0EECF01F0000E01BEFF0E5F
:10335000026E036E00C05FF001C060F002C061F059
:1033600003C062F048C0E9FF49C0EAFF020EEE2444
:10337000006E000EEE20016E48C0E1FF49C0E2FF82
:1033800000C0E6FF01C0E6FF0001800E6219006E7A
:10339000800E005C08E1000E615D05E1000E605DDD
:1033A00002E1000E5F5C18E2030E5712000E581285
:1033B000006A016A026A036A5F50005E6051015A46
:1033C0006151025A6251035A00C05FF001C060F0BF
:1033D00002C061F003C062F04FD057A827D048C0A8
:1033E000E9FF49C0EAFFEECF00F0EECF01F000C0E8
:1033F000E9FF01C0EAFFEECF5FF0EECF60F0EECF65
:1034000061F0EECF62F048C0E9FF49C0EAFF040E68
:10341000EE24006E000EEE20016E48C0E1FF49C0B0
:10342000E2FF00C0E6FF01C0E6FF26D0000148C071
:10343000E9FF49C0EAFFEECF00F0EECF01F000C097
:10344000E9FF01C0EAFFEECF5FF0EECF60F0000EC3
:10345000616F626F48C0E9FF49C0EAFF020EEE24C7
:10346000006E000EEE20016E48C0E1FF49C0E2FF91
:1034700000C0E6FF01C0E6FF000E531802E1000E97
:10348000521810E10001000E006E621908E10050B0
:10349000611905E10050601902E15F50000A02E184
:1034A000524A532AC00E5714006E00C005F0B1D026
:1034B000010E546E54500A0A35E0000154C000F069
:1034C000000E016E026E036E003600900136023669
:1034D0000336003600900136023603367E0E002495
:1034E000F66E3F0E0120F76E000E0220F86E090006
:1034F000F5CF01F00900F5CF02F00900F5CF03F098
:103500000900F5CF04F00450625D08E10350615DED
:1035100005E10250605D02E101505F5C01E202D012
:10352000542AC8D785D0010E546E5450080A35E08D
:10353000000154C000F0000E016E026E036E0036F2
:10354000009001360236033600360090013602360E
:103550000336C60E0024F66E3F0E0120F76E000EF5
:103560000220F86E0900F5CF01F00900F5CF02F056
:103570000900F5CF03F00900F5CF04F00450625DB7
:1035800008E10350615D05E10250605D02E1015018
:103590005F5C01E202D0542AC8D74AD0010E546EB3
:1035A00054500C0A35E0000154C000F0000E016ECA
:1035B000026E036E00360090013602360336003686
:1035C00000900136023603364E0E0024F66E3F0E92
:1035D0000120F76E000E0220F86E0900F5CF01F011
:1035E0000900F5CF02F00900F5CF03F00900F5CF8F
:1035F00004F00450625D08E10350615D05E1025092
:10360000605D02E101505F5C01E202D0542AC8D73C
:103610000FD00550000AD8B44BD70550C00AD8B413
:1036200047D70550800AD8B47ED70550400AB6E087
:10363000800E006E800E5318005C02E15250545C04
:1036400003E252C054F00DD0800E5318006E800E6D
:10365000005C02E15450525C04E254C052F0000E8F
:10366000536E555056100EE0030E5714006E58C09E
:1036700001F0000E01160050011004E0010E555E2D
:10368000000E565A800E5318006E800E5618005CBD
:1036900002E15550525C05E25250555E5350565A65
:1036A00002D0556A566AC40E5714016E5850080B62
:1036B000026E0250080A02E1400E011808E155505E
:1036C000561004E0010E555E000E565A1CD0C00E76
:1036D0005714016E5850080B026E0250080A02E19E
:1036E000800E011810E1800E006E800E5618005CEE
:1036F00002E15550020805E2020E555E000E565AD0
:1037000002D0556A566A57A461D057A213D057A069
:1037100003D02D0E4E6E02D02B0E4E6E000143C014
:10372000E1FF44C0E2FF4EC0E6FF434A442A634B38
:10373000642B36D057A00CD0000143C0E1FF44C039
:10374000E2FF200EE66E434A442A634B642B28D0E6
:10375000C00E5714016E5850080B026E0250080A32
:1037600002E1800E01181CE1000143C0E1FF44C0EA
:10377000E2FF300EE66E434A442A634B642B57AA9D
:1037800003D0580E4F6E02D0780E4F6E43C0E1FF4B
:1037900044C0E2FF4FC0E6FF434A442A634B642B18
:1037A0005550561012E0000143C0E1FF44C0E2FF53
:1037B000300EE66E434A442A634B642B010E555E7D
:1037C000000E565A55505610EEE179D0555056100D
:1037D00014E057B612D0000143C0E1FF44C0E2FF3D
:1037E000200EE66E434A442A634B642B010E555E5D
:1037F000000E565A55505610EEE157A213D057A05E
:1038000003D02D0E506E02D02B0E506E000143C01F
:10381000E1FF44C0E2FF50C0E6FF434A442A634B45
:10382000642B0DD057A00BD0000143C0E1FF44C072
:10383000E2FF200EE66E434A442A634B642BC00E1F
:103840005714016E5850080B026E0250080A02E12C
:10385000400E01180CE1000143C0E1FF44C0E2FF4B
:10386000300EE66E434A442A634B642B28D0C00EC8
:103870005714016E5850080B026E0250080A02E1FC
:10388000800E01181CE1000143C0E1FF44C0E2FFCB
:10389000300EE66E434A442A634B642B57AA03D08A
:1038A000580E516E02D0780E516E43C0E1FF44C0F5
:1038B000E2FF51C0E6FF434A442A634B642B800E6B
:1038C000006E800E5318005C02E15250545C0CE212
:1038D000000143C0E1FF44C0E2FF300EE66E434A00
:1038E000442A634B642BEBD752C000F053C001F065
:1038F000010E525E000E535A00500110D8B42CD164
:10390000C00E5714006E00C065F00AD152C000F01E
:1039100053C001F0000E53BEFF0E026E036E003660
:10392000009001360236033600360090013602362A
:1039300003367E0E0024F66E3F0E0120F76E000E59
:103940000220F86E0900F5CF04F00900F5CF05F06C
:103950000900F5CF06F00900F5CF07F05FC000F0D1
:1039600060C001F061C002F062C003F0C8EC06F074
:103970000A0E046E000E056E066E076EC8EC06F0A9
:1039800008C000F009C001F00AC002F00BC003F04B
:10399000300E0024546ED4D057AA45D052C000F047
:1039A00053C001F0000E53BEFF0E026E036E0036D0
:1039B000009001360236033600360090013602369A
:1039C0000336C60E0024F66E3F0E0120F76E000E81
:1039D0000220F86E0900F5CF04F00900F5CF05F0DC
:1039E0000900F5CF06F00900F5CF07F05FC000F041
:1039F00060C001F061C002F062C003F0C8EC06F0E4
:103A00000F0E0016000E011602160316E60E002415
:103A1000F66E3F0E0120F76E000E0220F86E0900D0
:103A2000F5CF54F044D052C000F053C001F0000E66
:103A300053BEFF0E026E036E003600900136023652
:103A4000033600360090013602360336C60E0024D7
:103A5000F66E3F0E0120F76E000E0220F86E090090
:103A6000F5CF04F00900F5CF05F00900F5CF06F019
:103A70000900F5CF07F05FC000F060C001F061C041
:103A800002F062C003F0C8EC06F00F0E0016000E44
:103A9000011602160316F70E0024F66E3F0E0120E3
:103AA000F76E000E0220F86E0900F5CF54F048D0F2
:103AB00052C000F053C001F0000E53BEFF0E026E64
:103AC000036E003600900136023603360036009051
:103AD0000136023603364E0E0024F66E3F0E0120EC
:103AE000F76E000E0220F86E0900F5CF04F0090011
:103AF000F5CF05F00900F5CF06F00900F5CF07F086
:103B00005FC000F060C001F061C002F062C003F06D
:103B1000C8EC06F0070E0014546E300E542610D078
:103B200000016551000AD8B4F1D66551C00AD8B475
:103B3000EDD66551800AD8B42FD76551400AB8E058
:103B4000000143C0E1FF44C0E2FF54C0E6FF434A26
:103B5000442A634B642BC8D657A61BD0800E006E38
:103B6000800E5618005C02E15550000812E2000178
:103B700043C0E1FF44C0E2FF200EE66E434A442A00
:103B8000634B642B010E555E000E565A555056106D
:103B9000EEE1A5EF0DF063C000F064C001F012008B
:103BA0000C6A0E6A0250D8A4E9EF1DF001C002F0C1
:103BB00000C001F0006A0E860250D8A4E9EF1DF0A3
:103BC00001C002F0016A0E960E880250D8B4FBEFD5
:103BD0001DF00E50035ED8A4D8A001EF1EF0D890BF
:103BE00002BE07EF1EF0003601360236032EF0EF5C
:103BF0001DF001EF1EF0010E0C6E1AEC00F00BEF41
:103C00001EF0020E0C6E25EC00F00BEF1EF0040E01
:083C10000C6E21EC00F0120023
:0E3C1800359043C06BF0ECEC05F035801200E7
:103C26000FD0800E366E19D0C00E366E16D0940E9A
:103C3600366E13D0D40E366E10D0800E366E0DD082
:103C46003650010AEEE03650020AEEE03650030A1C
:103C5600EEE03650040AEEE0F0D73704006E365038
:103C6600002600C036F000C06BF0ECEC05F0359095
:103C76003A6A3A503824E96E000E3920EA6EEE525E
:103C86000BE03A503824E96E000E3920EA6EEECF8A
:0C3C960043F0BFDF3A2AEDD73580120062
:103CA2003B0E416E000E426E36C043F037C044F008
:103CB20038C045F039C046F03AC047F0410E486E70
:103CC200000E496EA0EC0DF000C03FF001C040F0C4
:103CD20000503624E16E01503720E26EE66A3FC0A2
:083CE20000F040C001F01200E7
:103CEA0000C008F00150006E016A026A036A0B6A9A
:103CFA000C6A016A026A036A960E036E0A6A00AEC9
:103D0A008DEF1EF0081E001E082AD8B4002A0A8E5B
:103D1A0000C001F008C000F0086A026A3CDF120025
:103D2A00FF0E926E0E0EC16E010EC26E920EC06E24
:063D3A00C46AC36A120016
:103D40000900F5CFE6FF0006FBE10106F9E11200EC
:103D5000C30EC21636C000F0003600900036009048
:103D60001E0E00160050C212C280C282C2A201D032
:103D7000FDD7C4CF01F0006AC3500012000E01123B
:023D800012002F
:103D8200939A93989390939293949396819A81980D
:103D92008196819481928190E7EC03F0E7EC03F045
:103DA200E7EC03F081828180818A27EC01F0819A1D
:103DB200E7EC03F0818A27EC01F0819AE7EC03F04B
:103DC200818A27EC01F0819AE7EC03F08190818AE5
:103DD20027EC01F0819AE7EC03F0818A27EC01F0ED
:103DE200819A81928186818A27EC01F0819AE7EC9F
:103DF20003F081968180818A27EC01F0819A81907B
:103E0200818A27EC01F0819AE7EC03F0818A27ECA2
:103E120001F0819A8180818A27EC01F0819AE7EC96
:103E220003F08190818A27EC01F0819A8186818456
:103E320081828180818A27EC01F0819AE7EC03F08C
:043E420035801200B5
:103E460007EC20F06FDF9ADF010E00016B6FECECE0
:103E560005F00C0E6B6FECEC05F0156A166A366A07
:103E6600376A73DF00C015F001C016F03BDF0A0E9B
:103E7600046E280E056E200E066E770E076E39EC60
:103E860001F000C031F001C032F002C033F003C0CF
:103E960034F0270E366E000E376E080E386E400E62
:103EA600396E000E3A6E00C03BF001C03CF002C015
:103EB6003DF003C03EF0F2DE010E366E020E376EA6
:103EC6001E0E386E000E396EABDE020E366E020E18
:103ED600376E270E386E000E396EA2DEC0D7FFD7BA
:10400E0010EE15F0200E006E010E016EA60EF66E6D
:0E401E003F0EF76E000EF86EA0EC1EF01200C2
:103EE6000000007F000020820000488500007A88DC
:103EF60000401C8C0050438F0024749280961896C4
:103F060020BC3E99286B6E9CF90215A0EC782DC159
:043F1600CAF249E2C0
:103F1A000000007FCDCC4C7B0AD723786F12037543
:103F2A0017B75171ACC5276EBD37066B95BF56677B
:103F3A0077CC2B645F700961FFE65B5D08E53C3C6A
:043F4A006042221B94
:103F4E000100000008000000400000000002000018
:103F5E00001000000080000000000400000020009F
:103F6E0000000001000000080000004000000000FA
:103F7E00010000000A00000064000000E8030000D9
:103F8E0010270000A086010040420F008096980086
:083F9E0000E1F50500CA9A3BA1
:023FA600000019
:073FA800286E756C6C290006
:093FAF0054656E73616F3A200045
:0A3FB80000000000000000000000FF
:043FC20000000000FB
:103FC60001000000100000000001000000100000C9
:103FD60000000100000010000000000100000010B9
:103FE6003031323334353637383941424344454629
:013FF60000CA
:103FF7003031323334353637383961626364656658
:0140070000B8
:05400800252E326600C8
:020000040030CA
:0E000000000C1F1EFF8381FF0FC00FE00F409A
:00000001FF
