:04000000E3EF05F035
:100008009EAA08D0AECF21F09EB801D0FDD72150CE
:06001800010FAD6E1100A6
:10001E000B820BAE19EF00F00368026801680068EE
:08002E000A360232FF0E120037
:080036000AAE029E000E12004A
:10003E000B840BAE2AEF00F0010E036E026A016A0A
:0A004E00006A0A360232FF0E1200AB
:0E005800026A016A006A086A036A000E12005A
:0600660000000000120082
:10006C000CB078EF00F00CA21EEF01F00E6A000E3F
:10007C0002648FEF00F0F00E0214D8A45AEF00F0D7
:10008C00023A01380F0B02260138F00B016E0038D2
:10009C000F0B01260038F00B006E08380F0B0026F2
:1000AC000838F00B086E0E84D89002BE73EF00F087
:1000BC0008360036013602360E2A02BE73EF00F007
:1000CC0008360036013602360E2A02BE73EF00F0F7
:1000DC0008360036013602360E2A0E50036414EF31
:1000EC0001F0035E0BBC08AE19EF01F0D880800E56
:1000FC0008640030000E002201220222D8A019EF61
:10010C0001F0023201320032034A1EEF01F019EF06
:10011C0001F001C002F000C001F008C000F0086A54
:10012C00000E0E860264C6EF00F0F00E0214D8A486
:10013C00AEEF00F0023A01380F0B02260138F00B3B
:10014C00016E00380F0B01260038F00B006E0E8488
:10015C00D89002BE73EF00F00036013602360E2A3C
:10016C0002BE73EF00F00036013602360E2A02BED4
:10017C0073EF00F00036013602360E2A73EF00F0F2
:10018C0001C002F000C001F0006A000E0E960E884D
:10019C000264F3EF00F0F00E0214D8A4DEEF00F0CE
:1001AC00023A01380F0B02260138F00B016E0E8457
:1001BC00D89002BE73EF00F0013602360E2A02BE52
:1001CC0073EF00F0013602360E2A02BE73EF00F018
:1001DC00013602360E2A73EF00F001C002F0016AFC
:1001EC00000E0E86026423EF01F0F00E0214D8A468
:1001FC0002EF01F0023A0E84D89002BE73EF00F0C9
:10020C0002360E2A02BE73EF00F002360E2A02BE30
:10021C0073EF00F002360E2A73EF00F0010E0C6E35
:10022C0008DF26EF01F0020E0C6EFFDE26EF01F068
:10023C00040E0C6EEEDE26EF01F0080E0C6E06DFDF
:02024C0012009E
:0A024E00210E0D6E0D2EFED71200DA
:100258000F0E0C6E470E0D6E0D2EFED70C2EFCD712
:060268000000000012007E
:08026E000B6A0B86FF0E120063
:10027600025006180E6E086A096A0B6A0350076474
:100286002EEF02F006500A6E068E028E03500B6E9B
:100296000750036E000E0B647EEF01F00B50075EF5
:1002A600D8B41FEF02F0070E0764EDEF01F0075E0A
:1002B60000C008F001C000F002C001F0026A074E5B
:1002C6001FEF02F00764C2EF01F0075E00C008F0FE
:1002D60001C000F0016A074E1FEF02F00764A0EFAD
:1002E60001F0075E00C008F0006A074E1FEF02F03B
:1002F600076487EF01F00AC002F005C001F004C0F0
:1003060000F0086A48EF03F0030E076492EF01F06D
:10031600075E08380F0B086E074E1FEF02F0D890E5
:100326000832074E1FEF02F0D8900832074E1FEF33
:1003360002F0D89008321FEF02F0030E0764B1EF07
:1003460001F0075E08380F0B086E0038F00B082620
:1003560000380F0B006E074E1FEF02F0D8900032E8
:100366000832074E1FEF02F0D89000320832074ECF
:100376001FEF02F0D890003208321FEF02F0030E92
:100386000764D9EF01F0075E08380F0B086E0038D6
:10039600F00B082600380F0B006E0138F00B002614
:1003A60001380F0B016E074E1FEF02F0D890013295
:1003B60000320832074E1FEF02F0D89001320032A9
:1003C6000832074E1FEF02F0D89001320032083291
:1003D6001FEF02F0030E07640AEF02F0075E08380B
:1003E6000F0B086E0038F00B082600380F0B006E56
:1003F6000138F00B002601380F0B016E0238F00BA6
:10040600012602380F0B026E074E1FEF02F0D8903E
:100416000232013200320832074E1FEF02F0D89046
:100426000232013200320832074E1FEF02F0D89036
:100436000232013200320832096A000E0EAE13EFA4
:1004460003F0081E001E011E021E082A00220122B9
:10045600022213EF03F00750D8A434EF02F048EF5E
:1004660003F0096A02C00AF0028E068E0750035C8A
:10047600076ED8B406EF03F0070E0764D4EF02F058
:10048600075E0450096E0550046E0650056E066A36
:10049600074E06EF03F0070E0764A9EF02F0075EAA
:1004A6000450096E0550046E056A074E06EF03F008
:1004B600070E076487EF02F0075E0450096E046AB0
:1004C600074E06EF03F0070E07646EEF02F00AC050
:1004D60002F048EF03F0030E076479EF02F0075EBF
:1004E60009380F0B096E074E06EF03F0D890093254
:1004F600074E06EF03F0D8900932074E06EF03F0D9
:10050600D890093206EF03F0030E076498EF02F065
:10051600075E09380F0B096E0438F00B09260438FC
:100526000F0B046E074E06EF03F0D8900432093223
:10053600074E06EF03F0D89004320932074E06EF55
:1005460003F0D8900432093206EF03F0030E076475
:10055600C0EF02F0075E09380F0B096E0438F00B86
:10056600092604380F0B046E0538F00B04260538EF
:100576000F0B056E074E06EF03F0D89005320432D6
:100586000932074E06EF03F0D890053204320932DD
:10059600074E06EF03F0D89005320432093206EF13
:1005A60003F0030E0764F1EF02F0075E09380F0B44
:1005B600096E0438F00B092604380F0B046E053853
:1005C600F00B042605380F0B056E0638F00B0526D2
:1005D60006380F0B066E074E06EF03F0D89006326C
:1005E600053204320932074E06EF03F0D890063280
:1005F600053204320932074E06EF03F0D890063270
:10060600053204320932086A000E0EAE13EF03F00B
:10061600091E041E051E061E092A0422052206229C
:1006260009500826045000220550012206500222D5
:100636000EBE2AEF03F0D8A039EF03F002320132E2
:1006460000320832033E39EF03F043EF03F0D8B02F
:100656003EEF03F0000E081E001E011E021E082AB1
:100666000022012202220A7E3EEF03F0010E0C6EEA
:10067600FADC4AEF03F0020E0C6EF5DC4AEF03F0EB
:10068600040E0C6EC9DC4AEF03F0000E0C6E12006D
:1006960029BE02D0819601D0818629BC02D08194E0
:1006A60001D0818429BA02D0819201D0818229B8F1
:1006B60002D0819001D0818022B002D0818801D001
:1006C6008198818ACDDC819A29B602D0819601D0A3
:1006D600818629B402D0819401D0818429B202D0C6
:1006E600819201D0818229B002D0819001D081808F
:1006F60022B002D0818801D08198818AB1DC819AAA
:0C07060022A002D0A6DD01D09FDD120071
:100712000B800BAE95EF03F0026A0AAEFF0E026E7B
:0C072200016E006E0A360232FF0E12005B
:0C072E00229028C029F0B0DF22801200C9
:06073A00067E9CDD1200AA
:100740000B6A0350D8B4E6EF03F002500A6E028E33
:100750008E0E035E03AEEAEF03F0036C080E035C3B
:10076000D8A0C5EF03F0036E013602C001F0026AA3
:10077000080E035CD8A0C5EF03F0036E0136016AD2
:100780000350D8A4D890CFEF03F00350D8B4CFEFE4
:1007900003F0D89002320132032EC9EF03F00BBCF4
:1007A00001A0DCEF03F0D8A0DCEF03F0012AD8B4FD
:1007B000022A02BEF9EF03F00AAEFEEF03F0021EBA
:1007C000011E012AD8B4022AFEEF03F0026A016A70
:1007D000FEEF03F00B800BAE02EF04F0026A0AAEEC
:1007E00002EF04F0FF0E026E016E0A36023202EFD3
:1007F00004F0010E0C6E8DDF04EF04F0000E0C6EA1
:1008000004EF04F0FF0E0C6E0150006E0250016EFA
:020810001200D4
:100812000450000A12E10550000A0FE10650000AD6
:100822000CE10750000A09E1FF0E006EFF0E016E97
:100832007F0E026EFF0E036EA7D0086A096A075088
:10084200D8B4B4EF04F00350D8B4B8EF04F00250B7
:1008520006180A6E028E068E0E6A02C008F001C0E9
:100862000CF000C00DF004500D5E0550D8A0053C00
:100872000C5E0650D8A0063C085E086A0C6A0D6A37
:10088200D8A04BEF04F0D890023201320032083285
:10089200010E0E6E0750035ED8A058EF04F07E0ED4
:1008A2000E240326D8B0BDEF04F05EEF04F07E0EF6
:1008B2000E240326D8A0C2EF04F0180E0B6E0D36DC
:1008C2000C3608360036013602360E360450005E0B
:1008D2000550D8A0053C015E0650D8A0063C025E39
:1008E20006340E120EA079EF04F00D8084EF04F0AE
:1008F200045000260550D8B0053C01260650D8B059
:10090200062802260D900B2E60EF04F0AAEF04F0E9
:10091200D8900036013602360E360450005E05507D
:10092200D8A0053C015E0650D8A0063C025E063403
:100932000E10010B0D26D8B00C2AD8B4082AD8A460
:10094200AAEF04F008320C320D32032AD8B4BDEFFC
:1009520004F00AAE089E0850026E0C50016E0D5053
:10096200006EC5EF04F0010E81DCC5EF04F0020E4B
:100972002CEC00F0C5EF04F0040E0FEC00F0C5EF14
:0A09820004F0080E1FEC00F0120054
:10098C000050086E0150006E0250016E0350026E52
:10099C00036A0B6A0C6A9E0E036E0A6A02AEE3EFE0
:1009AC0004F0081E001E011E021E082AD8B4002ADC
:1009BC00D8B4012AD8B4022A0A8E020E0C6E36EC78
:0409CC0000F0120025
:1009D000939A93989390939293949396819A8198F3
:1009E000819681948192819037DC36DC35DC81827E
:1009F0008180818A33EC00F0819A2EDC818A33EC8D
:100A000000F0819A29DC818A33EC00F0819A24DCA1
:100A10008190818A33EC00F0819A1EDC818A33EC6C
:100A200000F0819A81928186818A33EC00F0819A6C
:100A300013DC81968180818A33EC00F0819A819069
:100A4000818A33EC00F0819A07DC818A33EC00F074
:100A5000819A8180818A33EC00F0819A2CEC01F03C
:100A60008190818A33EC00F0819A81868184818231
:100A70008180818A33EC00F0819A2CEC01F0228095
:020A8000120062
:100A82000900F5CFE6FF0006FBE10106F9E11200DD
:100A92000FD0800E236E19D0C00E236E16D0940E86
:100AA200236E13D0D40E236E10D0800E236E0DD081
:100AB2002350010AEEE02350020AEEE02350030A1B
:100AC200EEE02350040AEEE0F0D72404006E235037
:100AD200002600C023F000C029F0DCDD2290276A46
:100AE20027502524E96E000E2620EA6EEE520BE016
:100AF20027502524E96E000E2620EA6EEECF28F05C
:0A0B020015DE272AEDD7228012002D
:100B0C00949C948E23C000F024C001F025C002F008
:100B1C0026C003F035DF00C004F001C005F002C0B0
:100B2C0006F003C007F0000E006E240E016E740E6A
:100B3C00026E8F0E036E67DE000E046E000E056EE5
:100B4C00000E066E7F0E076EF2DDF4DD00C0AFFF07
:100B5C00200EAC6E900EAB6EF28EF28C9D8A120053
:100B6C000FD0800E236E19D0C00E236E16D0940EAB
:100B7C00236E13D0D40E236E10D0800E236E0DD0A6
:100B8C002350010AEEE02350020AEEE02350030A40
:100B9C00EEE02350040AEEE0F0D72404006E23505C
:100BAC00002600C023F0228000C029F06EDD2290C8
:0A0BBC0025C029F06ADD2280120036
:100BC600520E156E650E166E630E176E650E186E56
:100BD600690E196E760E1A6E650E1B6E640E1C6E0D
:100BE6003A0E1D6E200E1E6E1F6A300E206E300EDF
:100BF600216E0F0EC16EE9DE010E296E49DD0C0E67
:100C0600296E46DD820E0C6EDD0E0D6E0D2EFED7A4
:100C16000C2EFCD700000000010E236E010E246E80
:100C2600150E256E000E266E31DF150E0B6E4B0E61
:100C36000C6EBE0E0D6E0D2EFED70C2EFCD70B2E97
:100C4600FAD700009E9A9E98800E236E250E246E7B
:100C5600000E256E266E57DF020E236E010E246EE1
:100C660021C025F080DF020E236E080E246E20C000
:0A0C760025F079DF202AF0D7FFD720
:020000040030CA
:0E000000000C1F1EFF8381FF0FC00FE00F409A
:00000001FF
